:020000022000DC
:1070000000000420757302005D7302005F730200CC
:1070100061730200637302006573020000000000E8
:107020000000000000000000000000006773020084
:1070300069730200000000006B7302006D730200B0
:10704000499502006F730200459A02006F730200B7
:107050006F7302006F730200999802006F73020051
:107060006F7302006F7302006F7302006F73020090
:107070006F7302006F7302006F7302006F73020080
:107080006F730200698702006F7302006F73020062
:107090006F7302006F730200E5B902006F730200A4
:1070A0006F7302006F7302006F7302006F73020050
:1070B0006F7302006F730200000000000000000008
:1070C0006F7302006F7302006F7302006F73020030
:1070D0006F7302006F7302006F7302006F73020020
:1070E0006F7302006F7302006F73020000000000F4
:1070F000000000006F730200000000006F730200C8
:10710000000000000000000000000000000000007F
:10711000000000000000000000000000000000006F
:10712000000000000000000000000000000000005F
:10713000000000000000000000000000000000004F
:10714000000000000000000000000000000000003F
:10715000000000000000000000000000000000002F
:10716000000000000000000000000000000000001F
:10717000000000000000000000000000000000000F
:1071800000000000000000000000000000000000FF
:1071900000000000000000000000000000000000EF
:1071A00000000000000000000000000000000000DF
:1071B00000000000000000000000000000000000CF
:1071C00000000000000000000000000000000000BF
:1071D00000000000000000000000000000000000AF
:1071E000000000000000000000000000000000009F
:1071F000000000000000000000000000000000008F
:10720000354936480A1A02D0072291438D4634493F
:1072100034480A1A06D00722914381F309880222D2
:1072200082F3148830483149314A00F044F831483B
:107230003149324A00F03FF831483249324A00F0D1
:107240003AF832483249334A00F035F83248334987
:10725000334A00F030F833483349344A00F02BF811
:1072600033483449344A00F026F83448344900227F
:1072700000F02CF833483449002200F027F8334856
:107280003349091A082902DB002202604160314AB1
:1072900090471F481F49884205D00268043003B454
:1072A000904703BCF7E700208646EC46002000210B
:1072B000294A9047FEE7884207D0521A05D0037842
:1072C00001300B700131013AF9D17047884202D088
:1072D00002700130FAE770470000042000E003204C
:1072E000000004200000042060D4020000230020DD
:1072F00068230020D0730200D073020070C5020022
:1073000060D4020000230020002300205CC602009D
:107310005CC602005CC602005CC602005CC60200DD
:107320005CC602005CC602005CC602005FD40200BC
:10733000C8D40200682300206823002068230020AE
:107340000C2F00200C2F00200C2F00200C2F0020D1
:107350000C4F00209D7302003DA60200FEE7FEE7F1
:10736000FEE7FEE7FEE7FEE7FEE7FEE7FEE7FEE7F5
:1073700000F002B8FFF7FCBF0F484FF00701884349
:1073800085460E4880470E48016841F4700101604F
:10739000BFF34F8FBFF36F8FFFF732BF09480A4922
:1073A0000A4A884207D0521A05D0037801300B7080
:1073B0000131013AF9D17047000004209590020094
:1073C00088ED00E05CC602000023002000230020BE
:1073D000F0B595B01D46164608460C4601F076FD00
:1073E0001A9B0D93CDE9086500252B46082205A9B7
:1073F00020460A958DF82C500C9501F084FD079BD2
:107400000293069B03939DF814308DF8115003F0FE
:107410000302012A1DD1BDF81420059DC3F3C20348
:10742000C2F383168DF81030B20008230EA920464F
:1074300001F069FDC5F3952508AB0093324602AB18
:107440000EA9284600F0D8FB204601F043FD15B0F8
:10745000F0BD022AF8D1BDF81650C3F3C203C5F33C
:1074600089158DF810300827082D2E4628BF0826CC
:107470003B4632460EA9204601F045FDAD1B08AB48
:1074800002AA31460EA8374400F01AFC002DEBD1B9
:10749000DAE70000014B01221A707047A92300208F
:1074A0007047000070B5124D06460FCD88B06C468F
:1074B0000FC495E80F00002E84E80F004FF0FF3353
:1074C0004FF00602CDE90023CDE90233094A0A480C
:1074D0004FF0EB7308BF00226946069301F0CCFF22
:1074E00008B100F0E1FD054B1E7008B070BD00BF93
:1074F0005CC602009574020000230020682300206F
:1075000007B5044B0093044A4023FFF761FF03B023
:107510005DF804FB1D7502006923002038B50D4B92
:107520000D4D002018700D4804782D5DD2B21C4618
:1075300065B1043002F014FF08B100F0B5FD084B4E
:107540001A7812B12378002BFBD038BD0C3002F032
:10755000C3FCF1E7A9230020602A002000230020BB
:107560006823002008B50848084A0378D35C3BB17B
:10757000043002F08FFEBDE808400020FFF792BF04
:107580000C3002F055FCF6E700230020602A0020B2
:107590000120FFF787BF000008B5FFF7F9FF044897
:1075A000042100F091FA034B01225A7108BD00BF7B
:1075B0004CC6020014230020037813F0040216D0F6
:1075C00003F00303012B03D0022B09D001207047E5
:1075D0000A6800880232C0F3831002440A60F5E7AB
:1075E0000B684288023303EB92130B60EEE7104600
:1075F000704700002DE9F04F87B000230446861C39
:107600000DF107000F4615468DF8073000F03CFFDE
:10761000454801683960D0E90132134401335B1AEF
:10762000824600F21C4700F5836900F21448B34219
:107630001CD30020002D73D004F00F039B0143F0F6
:10764000050363F30F00DAF80020DAF8083013407E
:10765000033316444AF823009DF80700CAF8006077
:1076600000F036FF012007B0BDE8F08F0121384659
:1076700001F057F9484601F06CF9404601F069F90C
:10768000DAF80400DAF808B0029000EA0B000330E0
:107690000AEB800002A9FFF78FFF029B50BB0BEAA9
:1076A00003020AEB820203F1020CD2680392013357
:1076B00003EA0B0B0AEB8B0B02F00302012ADBF847
:1076C0000C10CDF808C023D0022A16D083464046BD
:1076D00001F042F910B1029BCAF80430594638460D
:1076E00001F01FF9DAE901231344DAF8002001332D
:1076F0009B1A9CE70BEA0300C9E7BDF80E30C3F301
:10770000891303334FEA114B0CEB93030293DEE72B
:10771000BDF80C30C3F383134FEA114B6344F5E714
:10772000A40544F006008EE77C2400200B4B0C4897
:10773000FF2210B59A600022C3F81824C3E9002282
:10774000C3F8142483F8202401F079FB044610B90F
:10775000044801F021FC204610BD00BF7C2400201D
:10776000C0C50200B0C6020030B50A4C71B10A4A69
:107770000A49121BD20800239A4201D1002030BDD1
:1077800031F82350854202D00133F5E7034654F81F
:107790003300F4E7D4C502004CC6020000230020E9
:1077A000094B013903EBC000032909D8DFE801F0D8
:1077B0000A02040604207047007970474079704738
:1077C0000020704702207047D4C50200034BD3E964
:1077D0000030C31A58425841704700BF7C24002033
:1077E0002DE9F04387B0FFF7F1FF0646002840F08F
:1077F000F9807D4DC5F81804BFF34F8F6B68AC68F6
:1078000002932340033305EB830002A9FFF7D4FE64
:10781000029B18B1D5F81824002A5FD004EA0302AD
:10782000991C013305EB8202234005EB8303D268E8
:10783000DB68049302F00303022B0392029160D1F0
:10784000BDF80E306948C3F38917502FB84628BFDA
:107850004FF0500868F38F1308F10801ADF80E30AF
:1078600001F005FB0646002800F0A78001F02EFB82
:107870000023082203A9304601F03BFB029924EAC9
:1078800001020132B8EB820F4FEA820332D95FFA6C
:1078900088F85BB32140DCB2A8EB040803315FFA3F
:1078A00088F9A046524C05EB810108234246304638
:1078B00001F01FFB34B108F108034A462146304667
:1078C00001F017FB029B033703EB97070297D5F8EC
:1078D0001834002B49D1D5F8104459E02A689A424F
:1078E0008FD86A60304607B0BDE8F08340491C4637
:1078F0009946DAE70C40E11C0823424605EB81017A
:10790000DDE7012B59D1BDF80C303848C3F38311A2
:10791000062928BF062161F3891302318900ADF8D9
:107920000C3001F0A4FA0646002846D001F0CEFA49
:107930000023082203A9304601F0DBFA0027BDF836
:107940000C20C2F38312BB00974203F10803BED29E
:1079500002994A1C21400331029205EB8101042265
:10796000304601F0C6FA0137E9E7304601F0B2FAD5
:10797000FFF72CFF80F00100C6B2B3E7E3685B7944
:1079800023B1236831461B6820469847E3681C688A
:10799000002CF3D1304601F09DFA0DF107008DF86F
:1079A000074000F071FDD5F818340BB9029B6B60ED
:1079B0009DF8070000F08CFDDAE7D5F8104454B9C3
:1079C0000C4B0D480D49C01AC008000440F00200DD
:1079D00000F062F8CCE7236820469B689847E3688C
:1079E0001C68ECE700267DE77C240020C0C502006F
:1079F00088240020D4C50200FCC5020099C60200FC
:107A00002DE9F74F224D04460F46924601A9012267
:107A10001846D5F808909B46FFF7ECFD20B3019E71
:107A20004FF00008B21CD84508EB020126D11948D6
:107A3000002100F047FF80F31000000440EA1440EA
:107A4000E400731C04F0380403EA090306EA09069B
:107A500044F0010405EB8303033644EA881444EA46
:107A60008724D86045F8264095F820341BB1FFF7ED
:107A7000B7FE0028FBD103B0BDE8F08F09EA010191
:107A800005EB81015AF82830CB6008F10108CAE7FC
:107A90007C2400209828002000231A46FFF7B0BF5E
:107AA00007B50123019201AAFFF7AAFF03B05DF811
:107AB00004FB07B5CDE9002302236A46FFF7A0FFC8
:107AC00003B05DF804FB000030B50F49D1F8102475
:107AD00003460020144634B9DC6820714AB9C1F865
:107AE0001034226030BDE4682579854206D02468D0
:107AF000F1E7D268116821601360F3E701300A28CA
:107B0000E8D14FF0FF30EDE77C240020094A38B57A
:107B10000123D2F8104482F820341D4604B938BD40
:107B2000E3685D71236820465B689847E3681C68DA
:107B3000F4E700BF7C24002007B503460846197A05
:107B4000052911D05B7A2BB1094A0A49019000F04E
:107B500066FF01980849019000F061FF019803B0A9
:107B60005DF804EB00F050BF002AF8D0F2E700BF48
:107B7000BCC60200C1C60200E1C6020030B5C3881F
:107B800085B004460D4633B1144A00921449154A93
:107B9000284600F044FF217A05291DD0637A4BB1B5
:107BA000A088FFF7FDFD104B104953F82020284610
:107BB00000F035FF227A0E4BA08853F82220039262
:107BC0000021FFF7D1FD039A0A490346284605B074
:107BD000BDE8304000F023BF05B030BDBCC6020098
:107BE000CCC60200C4C6020048C70200C1C60200DB
:107BF0006CC70200E4C602002DE9F04385B01F46C1
:107C00000C9D002395F80C902B7306460C4690466D
:107C100029463846FFF7B2FFB8F1060F09D8DFE86A
:107C200008F00412181F283340003146284600F09F
:107C3000F6FE002229463846FFF77EFF85F80C90B5
:107C400005B0BDE8F08322683146284600F0E7FE23
:107C5000EFE7D4E900233146284600F0E0FEE8E7EC
:107C6000A36800933146D4E90023284600F0D7FEEC
:107C7000DFE7E3680193A36800933146D4E900236A
:107C8000284600F0CCFED4E723690293E368019311
:107C9000A36800933146D4E90023284600F0BFFED4
:107CA000C7E76369039323690293E3680193A368B9
:107CB00000933146D4E90023284600F0B0FEB8E72F
:107CC00008292DE9F74F80460E4617461C463CD83A
:107CD000002593F80C901D7319461046FFF74EFFD0
:107CE000DFF888A0DFF888B0AE4231D918F8052057
:107CF0005946204600F093FE0135082DF4D119496C
:107D0000194DDFF870A0204600F089FE4FF0000BFF
:107D10005E4522D918F80B207E2A05D8104601921C
:107D200004F03AF8019A00B92E225146204600F09C
:107D300076FE0BF1010BBBF1080FE9D101222146C0
:107D40003846FFF7F9FE84F80C9003B0BDE8F08FD9
:107D50005146204600F063FECEE72946204600F05B
:107D60005EFEE6E7F8C60200F6C60200F4C60200B0
:107D7000EEC60200FAC60200C30710B507D4F0230E
:107D8000054A4008145C23401943115410BD0901F1
:107D9000C9B20F23F4E700BF6829002030B5094BB2
:107DA0001C78094B196800239C4202DC0022104613
:107DB00030BD11F83350854201EBC302F7D00133D7
:107DC000F2E700BF382900208829002013B50446B7
:107DD0000191FFF7E3FF38B143682BB101992046C9
:107DE00002B0BDE81040184702B010BD034B044874
:107DF00019680022490800F056BA00BF3C2900204B
:107E00004029002010B5C0B2FFF7C8FF0446007833
:107E100001F034FD63785A1E53425341834208D126
:107E2000044BD3E90023134303D1BDE81040FFF70F
:107E3000DDBF10BD6029002037B54308354AD35C4B
:107E4000C2074CBF1B0903F00F0304460D46042B69
:107E500035D8DFE803F003252C383C0079B3012145
:107E6000FFF78AFF00230DF107008DF8073000F0BF
:107E70000BFB0120A4F12003C4F12001264A20FAC3
:107E800001F100FA03F30B43A040D2E90041204383
:107E90000B43C2E900039DF8070000F019FB0EE058
:107EA000002918BF02212046FFF766FF07E041B115
:107EB0000321FFF761FF01212046FFF787FF03B091
:107EC00030BD0121EFE70029F9D10421EBE709B129
:107ED0000321E8E7FFF750FF29462046FFF776FF2A
:107EE0000DF107008DF8075000F0CEFA0120A4F143
:107EF0002003C4F12001084A20FA01F100FA03F33B
:107F00000B43A040D2E9004124EA000021EA030328
:107F1000BFE700BF68290020602900202DE9F0415B
:107F2000124E134F00243378A34208DC114BD3E9DF
:107F30000023134318D0BDE8F041FFF757BF3D6859
:107F400005EBC40815F8340001F098FC98F80130EE
:107F50005A1E53425341181A4142414115F8340008
:107F6000FFF76AFF0134DEE7BDE8F0813829002021
:107F70008829002060290020092AF7B505460C460B
:107F800016463CD901F088FBD8B11E4B1E481D6037
:107F90001E4B1F4F1C701F4B002120221E6003F040
:107FA00048FF1D4B00200021C3E90001013CE4B261
:107FB0000326FF2C0BD1194A1948002100F068F95B
:107FC00003E001F031FB0028DFD003B0F0BD9DF8E5
:107FD000063015F834008DF8046005EBC40223F078
:107FE00007038DF8063001A993788DF805303A46DD
:107FF00001F05CFB013CE4B20028DAD0E5E70720A1
:10800000E3E700BF882900206829002038290020E4
:10801000057E02003C290020602900201D7F02000F
:108020008CC7020070B5084D084E00242B789C4286
:1080300001D3002070BD3368012113F8340001F032
:10804000B1FB0134F2E700BF382900208829002065
:1080500073B5114D114E00242B789C4214D300238C
:108060000DF107008DF8073000F00EFA0C4B0021DF
:108070000020C3E900019DF8070000F029FA094833
:1080800000F029F902B070BD336813F8340001F034
:10809000D3FB0134E0E700BF382900208829002005
:1080A00060290020402900201FB50021039001AA6B
:1080B00044F20100CDE9011100F004F805B05DF8CB
:1080C00004FB000010B572B6FFF720FDFFF788FB38
:1080D0000028FBD1104B114C1149E41AE408240488
:1080E00044F00100FFF7D8FC0E4B1B68DB0700D5FE
:1080F00000BE0D4944F00200FFF7CEFCBFF34F8FE6
:108100000A490B4BCA6802F4E0621343CB60BFF329
:108110004F8F00BFFDE700BFD4C50200FCC50200C1
:1081200090C70200F0ED00E09CC7020000ED00E007
:108130000400FA05D0E90223D1E90201994208BFFF
:1081400090422CBF012000207047000008B50B486A
:1081500000F0F5FA0A4B0B49D3E900231218D1E9D4
:10816000000143F100038B4208BF824203D212F1A7
:10817000807243F100031046194608BD1C230020FD
:1081800090290020082A002037B505460C460A48E9
:1081900001A900F006FB60B10570446001A9064822
:1081A00000F029FB18B1054800F0CEFA002003B01A
:1081B00030BD0420FBE700BFF42900201C23002071
:1081C00038B5184B1B78044613B90025284638BD2E
:1081D0000028FAD0037F03F0FF05002BF5D0FFF74E
:1081E000B5FFD4E90223994208BF904214D3236912
:1081F00003B92377D4E90530984721690029E4D0F1
:10820000237F03F0FF05002BDFD0D4E902235218AF
:1082100043F10003C4E902230348214600F0DBFEDA
:10822000D4E700BF98290020B8C7020013B5114B4E
:1082300011491868019008231048582200F09EFA4E
:10824000044698B90E4A0F4801A900F065F90446A2
:1082500060B90C48012100F055FA01230A4A094887
:10826000194600F0B7F9094B01221A70204602B0F6
:1082700010BD00BFB4C702009C290020F4290020D3
:10828000F18202001C230020FFFF7F0098290020BC
:108290003AB103685A614A1E5142514119610020A6
:1082A00070470720704738B5037F04460D4683B9F1
:1082B0008261FFF74BFF2369401941F10001C4E9D6
:1082C000020103B1256121460020BDE83840FFF7D7
:1082D0005BBF002038BD0023014603770120FFF774
:1082E00053BF0000014800F02ABA00BF1C23002041
:1082F0002DE9F04F85B0804600F00CFA40B15A4AA3
:10830000D2E9003113F1807341F10001C2E900317B
:108310000021404600F00DFA38B1544E336823B1C5
:108320003068FFF74DFF002333600121404600F025
:1083300000FA20B1FFF70AFF4D4BC3E900014D4899
:108340004A4F4D4EDFF8389103A900F064FA002837
:1083500045D1DFF82491454EDFF828A1484600F0CA
:1083600050FE3368002875D07BB13368D0E9020134
:10837000D3E90223994208BF90422DD233681B7F74
:108380001BB13168484600F026FE484600F033FE37
:10839000D0E902B307460193FFF7D8FE019BBBEB80
:1083A000000463EB0105012C75F1000345DBB4F516
:1083B000350F40D3FFF796FF304A02444FF496033F
:1083C0000021504600F026F900283ED1336813B949
:1083D000404600F0F7F8376005B0BDE8F08F03784D
:1083E000012B1DD0022B09D14FF0000A304600F0BE
:1083F00002FE002834D080F81CA0F7E73BB94168A2
:108400000B7F23B901230B77304600F0E4FD03A96D
:10841000184800F02BFA03A9164800F0FCF996E77B
:1084200041683B68994202D100233B60EFE7304648
:1084300000F0EAFDEBE7BA68C0E70021504600F023
:108440006EF93846FFF7BCFE01E00D28F9D0002395
:10845000336083E7002BBFD1404600F0B7F8BBE79D
:10846000012389F80030D2E790290020102A00204B
:10847000082A0020F4290020B8C70200FFFFB4003A
:10848000982900201C23002070B5EFF3108672B6E7
:108490000C4A946801239CB993600B4B0B4DD3F8A5
:1084A000801029401160C3F88050D3F884105160C7
:1084B0004FF0FF32C3F88420047006B962B670BD75
:1084C0000370FAE7142A002000E100E0FC06FFBD7B
:1084D000084B9A6810B55AB150B9EFF3108172B6D3
:1084E000054A1C6814605C685460986001B962B603
:1084F00010BD00BF142A002000E100E0435882B004
:108500003BB10023435043580193019B012002B02B
:1085100070471846FBE70000F8B5224B4679224C1D
:1085200043F82620214A224B9B1A04EBC602DB08A3
:1085300012791B04F70032B143F002001D49FFF726
:10854000ABFA0820F8BD02680D88C2F8085590F90A
:10855000045002798978002DADBF05F1604CDFF839
:108560005CC002F00F0E0CF5614C4FEA4111C9B22C
:10857000B4BF0CF80E108CF800136D090121DFF860
:1085800040C002F01F0201FA02F24CF82520E21965
:1085900044F83600117143F003000749FFF77CFAF5
:1085A0000020CFE7282A0020202A0020D4C502007E
:1085B0000CC60200C4C70200E6C7020014ED00E0CA
:1085C00000E100E0036801221A607047036801229D
:1085D0005A60704773B501F15005AD000068ADB247
:1085E0004FF480348C400026C0F80843C0F848435C
:1085F000465101F5A8714559019522F07F42019D30
:1086000040F82120C0F844430BB1C0F8044302B045
:1086100070BD00002DE9F74F0D4622F07F4402683F
:108620004FF4803705F150068F408046B60002EBCC
:108630008500C2F84873B6B2C2F80873D2F80415C0
:1086400099464FF0000BD0F84035C0F8401542F87D
:1086500006B05B1A9259009223F07F43012B009AD7
:108660004FEA850A0CD1264B4FF4806043F001039A
:108670009847D8F8003043F806B09B590193019B06
:10868000D8F80010D1F80465C1F84473A31B23F097
:108690007F43012B1CD11A4B05F5A875013443F01B
:1086A000010341F825404FF480609847D8F8003026
:1086B000D3F804359E4209D1D8F800300020C3F821
:1086C0004473C3F8047303B0BDE8F08F0D20FAE7DC
:1086D0008A44C9F1FF13CAF84045D1F80405221AAB
:1086E000013A22F07F4203F57F439342EED3002A02
:1086F000E2D10134CAF84045D1F804359842DAE7AE
:1087000000C8020003680222C3F8442309B1C3F879
:108710000423704700684FF48271FFF7EFBE4FF4F7
:10872000803303FA01F10368C3F84813C3F8081350
:10873000704750318900006889B2FFF7DFBE0368D7
:10874000D3F804057047000090F9043001215A095C
:1087500003F01F0301FA03F34032024941F82230CB
:10876000704700BF00E100E0024B034A1B6810683D
:10877000184700BF282A0020202A002010B561B128
:10878000B2FBF3F403FB1424A4B244B9C0E900140F
:1087900084608281C381204610BD0E20FCE7092041
:1087A000FAE737B550E8013F9DB2C4892544848972
:1087B000A54228BF2D1B0489A54202BFBFF32F8FFE
:1087C000002207E0C5EA030540E80154002CE9D186
:1087D0004FF001028DF803200193019B9DF80320C7
:1087E0000B6002F0FF0322B10B880068184403B04D
:1087F00030BD1846FBE70A884B889A4209D150E8F9
:10880000012FC2EA024240E80123002BF7D10120E8
:1088100070470020704737B550E8023F1FFAA3F5B4
:10882000C488A54202BFBFF32F8F00220DE0C48988
:1088300025448489A54228BF2D1BC3EA054540E88D
:108840000254002CE8D14FF001028DF8032001936F
:10885000019B9DF803200B6002F0FF0322B14B88BF
:108860000068184403B030BD1846FBE70A884B88FF
:108870009A4209D150E8022FC2EA224240E802237C
:10888000002BF7D1012070470020704701F01F0234
:108890004B090121914000EB830000F01EB801F06C
:1088A0001F0301229A404B0900EB8300D14300F0E3
:1088B0002CB84B0901F01F0150F82300C84000F00C
:1088C0000100704710B5034653E8000F0A4643E81D
:1088D000002494F0000FF7D110BD10B5034653E803
:1088E000002F42EA010043E8000494F0000FF6D1A3
:1088F00010BD10B5034653E8000F00EA010243E83B
:10890000002494F0000FF6D110BD10B5034653E8D3
:10891000002F02EA010043E8000494F0000FF6D1B2
:1089200010BD10B5034653E8002F02EB010043E8E9
:10893000000494F0000FF6D110BD10B5034653E8C3
:10894000002FA2EB010043E8000494F0000FF6D1E1
:1089500010BD0121FFF7C1BF0021FFF7CABF10B54D
:1089600090B1D0E9012301689B1ADBB20A60013B98
:10897000DBB2FF2B026802D10020107110BD11681C
:108980004C1C14600B70F2E70E20F7E737B5054674
:1089900000240DF107008DF80740FFF775FD2A68E8
:1089A0006B68116899420ED9481E106011F8014C8D
:1089B000EB68298A01FB0434AB6811791B1ADBB21E
:1089C000994238BF13719DF80700FFF781FD2046DB
:1089D00003B030BD37B5054600230DF107000C4646
:1089E0008DF80730FFF750FD2A681368591C116095
:1089F000E968641A298AB4FBF1F41C709DF8070039
:108A0000FFF766FD03B030BD826810B504462AB199
:108A100043690168006998470023A36010BD0EB444
:108A200003B5039921B104AB01AA019300F076F8D4
:108A300002B05DF804EB03B070470A2938B504466C
:108A40000D4602D10D21FFF7F8FFA3682268591CDB
:108A5000A160D554D4E901329A4204D32046BDE83E
:108A60003840FFF7D1BF38BD2DE9F84F9846DDE912
:108A70000A43154682460F460A464FF00109AA42AC
:108A80000FD2C14538BFC14613F0010B01D16CB9FB
:108A900000240126B8F1010F1BD908F1FF386E43FD
:108AA000F8E709F10109B2FBF5F2E8E79B070ED5FB
:108AB000B8F1000F0CBF30262026A145E9D2013CB9
:108AC00031465046FFF7B9FF002CF6D1E0E72026EB
:108AD000F3E7B7FBF6F39D42E1D9DFF83C80B7FB43
:108AE000F6F3504618F8031006FB1377FFF7A5FFBF
:108AF0003346AB42B6FBF5F6F1D2BBF1000F02D024
:108B00000CB1A14501D3BDE8F88F20215046013CAE
:108B1000FFF793FFF4E700BF06C802002DE9F74F07
:108B2000054617468846002900F0428118F8011BC7
:108B300049B92B7B002B00F03B81284603B0BDE8F0
:108B4000F04FFFF761BF252940F0B780002698F865
:108B500000302D2B424608F1010823D0302B24D0C1
:108B60002B2B25D000242A2B02F1010123D13B68B5
:108B70001A1D1B683A601C440A4613782E2B26D116
:108B800001324FF0000A104610F8011BA1F1300C21
:108B9000BCF1090F1DD80A2303FB0A13A3F1300A05
:108BA0000246F0E746F00106D1E746F00206CEE7BE
:108BB00046F00406CBE711F8013CA3F13000092888
:108BC000DBD80A2202FB0434303C0A46CBE74FF0E4
:108BD000000A12F8011B01F0FB0068289046F8D04B
:108BE000782909D86F290CD8632962D022D8252981
:108BF00063D0582900F0888098F80030002B95D178
:108C000097E770390829F7D801A353F821F000BF7E
:108C10008B8D0200F98B0200F98B0200198D020086
:108C2000F98B0200F78C0200F98B0200F98B02002D
:108C3000098D0200642901D06929DDD13A68D2F892
:108C40000090111D89EAE9723960A2EBE9724FF0D8
:108C5000010B092A35DCD34538BFD3462CB1B9F115
:108C6000000F01DB720700D5013CB30702D5BAF152
:108C7000000F03D0F00701D44CBB0024B9F1000F62
:108C80002DDAC9F100092D212846FFF7D6FE06F09E
:108C90000302022A04D1BAF1000F01D11CBB002447
:108CA000CDE9004653460A2249462846FFF7DCFE36
:108CB000A2E73B681A1D19783A602846FFF7BDFE07
:108CC0009AE70A230BF1010BB2FBF3F2C1E7A345CC
:108CD000D4D220212846013CFFF7AFFECCE7710734
:108CE000D5D52B21D0E7A345DAD230212846013C47
:108CF000FFF7A3FED2E73968CDE900460A1D3A60C6
:108D000053460A220968D0E739680A1D3A60CDE95E
:108D1000004653461022F5E73B681A1D3A6016F0EC
:108D20000106D3F8009028D1B9F1000F03D04846CE
:108D300003F0D4F80646B44200D904BB09F1FF3968
:108D400019F8011F00293FF457AF2846FFF775FEB9
:108D5000F6E728460136FFF770FE19F806100029DD
:108D6000F7D1A642BFF448AF002C3FF445AF202115
:108D70002846013CFFF761FEF3E70026EDE72021DE
:108D80002846013CFFF759FED5E73B681A1D3A60BB
:108D9000302128461C68FFF750FE78212846FFF74F
:108DA0004CFE00220823CDE90032214610227CE748
:108DB00003B0BDE8F08F00BF2DE9F84FB0F806A072
:108DC0004579D2F800B09DF828900AFB05F5043DDE
:108DD00088460BEB0301A94203F1040488BFA5EB0D
:108DE000030BB4FBFAF607460AFB1644C2F800B0C0
:108DF0004EB9AAEB04055D4528BF5D46BBF1000FE7
:108E000004D1BDE8F88F3F68013EF1E7043408EB78
:108E100006003C442A46B9F1000F0DD02146ABEBC9
:108E2000050B02F0DDFFDA452E443F6855464FF052
:108E3000000428BF5D46E1E701462046EFE7FFF763
:108E40008EBDF8B546790146721E05460023934251
:108E50002D6803D30024A64202D8F8BD0133F6E7FB
:108E60000F682846FFF7B6FD01343946F3E72DE9D0
:108E7000F843068ACD1C0746FFF788FD043E3544BB
:108E80000446B5FBF6F5F0B14FF48073EDB2838084
:108E9000C680013D076081464FF00008A84512D208
:108EA0003846FFF773FD064648B1637901336371B5
:108EB00008F10108C9F8000007608146EEE7204686
:108EC000FFF7BFFF34462046BDE8F8830121043098
:108ED000FFF727BD10B5012104460430FFF72DFD33
:108EE00010F0FF0F04D12046BDE81040FFF7A9BFE6
:108EF00010BD1FB503920022009203AAFFF75CFF8A
:108F000005B05DF804FB1FB503920122009203AA8D
:108F1000FFF752FF05B05DF804FB41DF704700002A
:108F2000064B10B500241C70054B1C60BFF35F8F0F
:108F30000449054800F039F8204610BD342A0020C5
:108F4000382A002020C802002C2A002007B5002360
:108F50000DF107008DF80730FFF796FAF1EE103AA1
:108F600023F09F03E1EE103ABFF35F8F094B4022DD
:108F7000C3F884219DF80700FFF7AAFA02F018FD54
:108F800020B1FFF7CAFF03B05DF804FB20BF40BF6C
:108F900020BFF8E700E100E0836800225A60C3E9DF
:108FA00004229A60DA601A6070470B684A6843606E
:108FB000934208BF0023016008BF436070474368C5
:108FC00043B10268916852680B449342436004BF06
:108FD00000234360704770B5446806460D4620681C
:108FE00018B1B3682946984718B923682B602560E3
:108FF00070BD2468F3E74368186808B102681A6016
:1090000070474368186870474368186800B970472C
:10901000884203D102681A60012070470346006845
:10902000F4E7000010B50D49A1F59472914201D802
:1090300000200FE08C1AE30F03EBE4035B1002EB5C
:10904000C30452F83330834205D802D204F1080237
:10905000ECE7606810BD2146E8E700BF2CCD0200B8
:1090600008B5FFF7DFFF024B002808BF184608BD10
:10907000EFCB0200054B1B68082B01BF044B18689F
:10908000B0FA80F0400918BF00207047300100108E
:109090003401001008B54FF080430022C3F80C21C2
:1090A000C3F81021C3F838254FF0805203F5404330
:1090B000D2F80414C3F82015D2F80814C3F8241504
:1090C000D2F80C14C3F82815D2F81014C3F82C15D4
:1090D000D2F81414C3F83015D2F81814C3F83415A4
:1090E000D2F81C14C3F84015D2F82014C3F8441564
:1090F000D2F82414C3F84815D2F82814C3F84C1534
:10910000D2F82C14C3F85015D2F83014C3F8541503
:10911000D2F83414C3F86015D2F83814C3F86415C3
:10912000D2F83C14C3F86815D2F84014C3F86C1593
:10913000D2F84424C3F87025FFF79CFF10B1384BD8
:10914000384A1A60FFF796FF18B1374BFB22C3F875
:109150001825FFF78FFF48B13449354B0A681B6863
:1091600022F00F0203F00F0313430B60FFF782FF9F
:1091700018B1304B4FF400721A604FF08043D3F8AF
:109180000024D20744BF6FF00102C3F800242A4A2A
:10919000D2F8883043F47003C2F88830BFF34F8FA1
:1091A000BFF36F8F4FF01023D3F80022002A03DBA8
:1091B000D3F80432002B2FDA204B0122C3F8042508
:1091C000D3F80024002AFBD04FF010221221C2F85D
:1091D0000012D3F80024002AFBD04FF010231222F3
:1091E000C3F80422154B1A46D3F800140029FBD00B
:1091F0000021C3F80415D2F80034002BFBD0BFF3D4
:109200004F8F0D490E4BCA6802F4E0621343CB60E6
:10921000BFF34F8F00BFFDE70A4B0B4A1A6008BD32
:109220008C5600404881030000F00040E40E0040EE
:10923000580200104096024000ED00E000E00140BE
:109240000400FA05242300200090D003074B1B5C88
:109250001F2B86BF064903F01F034FF0A0410122D8
:1092600002FA03F3C1F80C35704700BF2CCD0200A1
:1092700000030050074B1B5C1F2B86BF064903F001
:109280001F034FF0A041012202FA03F3C1F8083591
:10929000704700BF2CCD02000003005008B500202D
:1092A000FFF7E8FF0120FFF7E5FF0220FFF7E2FFED
:1092B000BDE808400320FFF7DDBFC20710B5044634
:1092C0000CD54FF0A0430322C3F83427C3F8382746
:1092D000C3F83C27C3F84027FFF7E0FFA3070AD5F0
:1092E0004FF0A0430C22C3F82C27C3F83027C3F853
:1092F0006027C3F8642710BD38B5074C051E04F17C
:10930000080318BF1C4623682BB11A6822605B68EB
:1093100028469847F7E738BD442A002020B9054B76
:1093200001225A70FFF7E8BF012802D1014A90706C
:10933000F8E770473C2A002020B9034B01225A70FD
:10934000FFF7DABF704700BF3C2A002038B50B4C4E
:10935000237883B90A486360A3602361E36000F067
:10936000C9F8054602F024FB08B900F0CFF8012344
:109370002370284638BD8525FBE700BF3C2A002026
:109380001D93020037B50B4C00230DF107008DF83B
:109390000730FFF779F8E368013BE360E56815B94A
:1093A00000F0C6F8A5709DF80700FFF791F803B02C
:1093B00030BD00BF3C2A0020012813B508D0032887
:1093C0001CD018B9104B0122C3F8802002B010BD88
:1093D0000E4C00230DF107008DF80730FFF754F80D
:1093E00023780BB9FFF7B2FFE3689DF8070001335C
:1093F000E3600123A370FFF76BF8E7E700F086F85E
:10940000FFF7C0FFE2E700BF00E100E03C2A0020D8
:109410001FB503788DF800304368019383688DF899
:109420000830C368054A0393054B684653F821305A
:1094300052F82110984705B05DF804FB502A00202F
:10944000582A00201FB503788DF800304368019337
:1094500083688DF80830C368054A0393054B684656
:1094600053F8213052F82110984705B05DF804FBFD
:10947000502A0020582A0020F0B5194B90F800C05F
:10948000DFF86CE043F82C20164B16460A6943F8C7
:109490002C204B7F0EF80C300C4607460FCC89B0C1
:1094A0006D460FC594E80F0085E80F001EF80C30DC
:1094B000CDF810C04BB1002E0B4A694608BF3246AA
:1094C000381D00F003FE09B0F0BD002E074A6946C2
:1094D00008BF324607F10C0000F0D4FBF3E700BFF1
:1094E000582A0020502A00201194020045940200BE
:1094F000602A0020044A137923B901211060918069
:109500001846704785207047642A0020074B1A6868
:10951000D2075FBFC02283F8002301221A604FF0F8
:1095200080430122C3F81825704700BF00E100E026
:10953000044B01221A604FF08042D2F81834DB034A
:10954000FBD470470C000040154B07B51A687AB180
:1095500000221A601B680093009B4FF08043012299
:10956000C3F808230F4B587910B95A711B689847F4
:109570000D4B1A6882B100221A601B680193019B8F
:109580004FF080430222C3F80823064B1B680120DA
:1095900003B05DF804EB184703B05DF804FB00BFAF
:1095A00000010040642A00200401004000F18040D6
:1095B00000F5C040002382B0036003680193019B63
:1095C00002B0704703681F2B83BF03F01F030360C3
:1095D00001484FF0A04070470003005007B50190CC
:1095E00001A8FFF7EFFF019B00EB8300D0F80037E5
:1095F00023F44033C0F80037D0F8003743EA014184
:10960000C0F8001703B05DF804FB0000054B4FF0F5
:10961000FF32072843F8202084BFC01880F8582064
:10962000704700BF6C2A002010B5174C94F86A30C0
:1096300043BB04F130033021FF22013911F0FF0157
:1096400003F8012BF9D1C8B2FFF7E0FF01310C2973
:10965000F9D1062200210D4802F0EBFB0C4BC02291
:1096600083F8062340221A604FF4BE70FFF79EFF76
:10967000084B4FF00042C3F80423012384F86A30FA
:10968000002010BD0820FCE76C2A0020D02A002012
:1096900000E100E000600040034B93F86A000038EE
:1096A00018BF0120704700BF6C2A0020F7B53B4E61
:1096B0003318054693F93030002B6CDA8B78C3F3FE
:1096C0004003002B0BBF082400240C2008208442F8
:1096D00002D1042003B0F0BD56F82470013743D105
:1096E000701946F8242080F8304013B9331983F8F4
:1096F00058508B785A0717D4D80737D501A8019549
:10970000FFF760FF019B00EB8300D0F8003723F0E8
:109710000203C0F800372248EA0805F007070123D2
:10972000BB40875C3B4383548B780A7813F0020379
:1097300028D0A40004F1804404F5C0442D02D4F8DC
:10974000103523F44F3323F44073C4F8103512045A
:10975000D4F8103505F47C5502F4403215431D430E
:10976000C4F810550020B5E70134B0E701A84A78E5
:109770000195FFF727FF019B03F5E073920040F886
:109780002320C8E7083C344494F8605045EA82122C
:1097900084F86020E6E708209CE700BF6C2A0020E0
:1097A000D02A002073B5224C2618054696F93020A1
:1097B000072A1ADD224492F858309B09032B0FD157
:1097C000019001A8FFF7FEFE019BD0F81015D940CB
:1097D00001F0010102312846FFF700FF02B070BD21
:1097E000012B0CBF02210321F5E7D3B2072BF5D8DB
:1097F000930003F1804303F5C043D3F8100540F014
:109800000100C3F8100502F14000800080B2FFF7AC
:10981000CDFE0029E2D096F9303054F82330002BE9
:10982000DCD0012303FA02F2024BC3F80423D5E78C
:109830006C2A0020006000400E4B034493F9302056
:10984000072A02DD0021FFF7C9BED3B2072B10D8CB
:10985000930003F1804303F5C043D3F8101521F0C2
:109860000101C3F81015012303FA02F2024BC3F8F9
:10987000082370476C2A00200060004007B5019063
:1098800001A8FFF79FFE019BD0F81005D84000F01B
:10989000010003B05DF804FB2DE9F04F002489B00E
:1098A000CDE90244624D4FF48072012102F1804300
:1098B00003F5C04390B21B68012B06D1D5F80433E1
:1098C0000B4202D0FFF772FE0C430432B2F5907FD8
:1098D0004FEA4101EAD1574B1B68012B0ED14FF4DF
:1098E000BE70FFF763FE4FF0A04344F00044D3F88E
:1098F00010350293504BD3F81035039314F0FF0F3B
:109900001AD04E4F00250126344210D0AB0003F18F
:10991000804303F5C043D3F81005D3F8101557F86A
:10992000253023B1C1F30141C0F30520984701352B
:10993000082D4FEA4606E7D1002C75DA04AF002364
:1099400004937B604FF0FF33CDE90633DFF8EC90F2
:10995000DFF8EC800026354618F9012B531C4AD05D
:10996000C2F3C2000123D4B202F03F0B02F007029F
:1099700003FA02F208AB191811F8083C13423AD066
:1099800009EB0B03A40993F9303059F823A0BAF17D
:10999000000F08D1032C2ED117F800C04CEA020C9E
:1099A00007F800C001E0032CF6D001A8CDF804B000
:1099B000FFF708FE019B11F8181C03F5E07C11422B
:1099C00050F82C00C0F3014005D0022813D1032C1D
:1099D0000BD1214604E003280DD1032C05D102212F
:1099E0005846FFF7FBFD0135EDB2BAF1000F02D08A
:1099F00021465846D0470136042EADD1A5B14FF0CF
:109A0000A0430299D3F8102503F540739142D3F88F
:109A1000103502D10399994206D002920393049A19
:109A2000059B0692079393E709B0BDE8F08F00BF4E
:109A3000006000407C610040000300506C2A002060
:109A4000CC2A0020014B1B68184700BFD82A0020F1
:109A50000E4B984237B50C4602D0002003B030BD03
:109A600000230DF107008DF80730FEF70DFD084BC0
:109A70001D7915B901221C601A719DF80700FEF7C7
:109A800027FD002DE9D01120E8E700BF00200040AD
:109A9000D82A0020034B984201BF034B00221A60D2
:109AA0001A71704700200040D82A0020002343503C
:109AB00082B043580193019B02B070470A4610B52B
:109AC0004FF48E71FFF7F2FF136A9168C95C136A55
:109AD00001331362C0F81C1510BD8B690A4610B51E
:109AE0004FF4847123B9FFF7E1FFD0F8183510BDAA
:109AF000FFF7DCFF536AD168D0F81805C854536AE1
:109B000001335362F3E700001FB501238DF80030E5
:109B1000044BCDE90110D3E900126846904705B027
:109B20005DF804FBE02A002030B54C48D0F804333F
:109B300013F4007F85B005464DD0D0F82431002BBA
:109B400049D04FF49271FFF7B1FF4FF40173C0F8A1
:109B50000833434B93F829200AB9012242603F4958
:109B600002228DF80020D1F88024C1F880240392CD
:109B70009A690292DA6801920022C3E906226846D5
:109B8000D3E9001290473548D0F81C315BB1344915
:109B90004A690B6A9A420A464AD991F82830002B42
:109BA00046D1FFF78BFF2D48D0F844318BB14FF4ED
:109BB000A271FFF77BFF2A4B93F829200AB10122FB
:109BC00002609A692AB10022586AD9689A61FFF73F
:109BD0009BFF05B030BDD5F804335B07D3D5D5F86E
:109BE0000831002BCFD01E4C1C482146FFF775FFD3
:109BF000636AA2699A422346C5D1E269E1684AB123
:109C00002369E3600023606AA261E3616362FFF796
:109C10007BFFB8E794F829200AB901226A600F4A4D
:109C20004FF40170C2F808030022586A9A61EEE707
:109C30000A484FF48E71FFF739FF5369002BB2D0F9
:109C400051690291002391688DF8003001915361B0
:109C50006846D2E900139847A5E700BF00200040FE
:109C6000E02A00201F2886BF00F01F00044B4FF0A1
:109C7000A04300F5E070022243F82020704700BFA7
:109C8000000300502DE9F843634B057991462C22DF
:109C900002FB0532064692F82A200C469846002A16
:109CA00040F0B6805D490068FFF7D2FE0746002805
:109CB00040F0B08021684A1C10D01F2987BF584A45
:109CC00001F01F030B464FF0A0420120984003F51E
:109CD000E073C2F80805032042F823006068431CC3
:109CE0000DD01F288BBF00F01F0303464C4A4FF0D6
:109CF000A04203F5E0734FF0000C42F823C0336834
:109D0000A269C3F8242594F814C0627DBCF1010F48
:109D10004CEA0202C3F86C25C3F81405C3F80C150D
:109D20002BD1A168481C0DD01F298BBF01F01F0249
:109D30000A463B484FF0A04002F5E0724FF0000C9D
:109D400040F822C0E068421C13D01F2887BF344A65
:109D500000F01F0C84464FF0A0424FF0010E0EFAA7
:109D60000CFE0CF5E07CC2F808E54FF0030E42F85B
:109D70002CE0C3F80805C3F810152C236B4308EB3F
:109D80000302C2F80490226948F80320B9F1000FD9
:109D90002BD03068247F4FF48E71FFF787FE306838
:109DA0004FF4A271FFF782FE32681E4BC2F80433F3
:109DB000110B42F30732002AA8BF02F160404FEABC
:109DC0004413BABF184801F00F0400F56140DBB23C
:109DD000B4BF035580F8003301F01F01012303FADB
:109DE00001F15209114B43F8221033680422C3F8E1
:109DF00000252C2303FB05830022C3E9062283F8F8
:109E000029205A61012283F82A203846BDE8F883C8
:109E10000827FAE71127F8E7E02A0020299B02002B
:109E2000000300508000020014ED00E000E100E0BB
:109E30002DE9F04103680479244D0022C3F8002580
:109E40002C2202FB0452014652686AB1204AC3F830
:109E5000082343F30732C3F3043652090120B0400C
:109E600020321C4E46F82200D3F80C05D3F8148596
:109E7000D3F80865D3F810754FF0FF329042C3F85D
:109E80001425C3F80C25C3F80825C3F8102501D004
:109E9000FFF7E8FEB8F1FF3F02D04046FFF7E2FED1
:109EA0007A1C02D03846FFF7DDFE731C02D0304624
:109EB000FFF7D8FE0868FFF7EDFD2C2303FB0454E1
:109EC000002384F82A306360BDE8F081E02A002096
:109ED0008402020000E100E02DE9F047204F90F8F5
:109EE00004904FF02C0808FB097405466669002EA3
:109EF00034D162610068A16026624FF48E7184F8EB
:109F00002860FFF7D3FD2868012383602146FFF70F
:109F1000D5FD6368A0468BB92868D4F814A0236ADD
:109F20009A4511D82A68D2F81C31002BFBD00123A6
:109F3000D3602C2303FB097300225A613046BDE82D
:109F4000F08794F828303BB9D0F81C31002BF8D0BA
:109F50004146FFF7B3FDE2E70F26EAE71126EDE7FA
:109F6000E02A00200023435082B043580193019B14
:109F700002B070471FB501238DF80030044BCDE9C6
:109F80000110D3E900126846904705B05DF804FB64
:109F90000C2B00201F2886BF00F01F00044B4FF041
:109FA000A04300F5E070022243F82020704700BF74
:109FB000000300507FB5434AD2F82461002E60D0E0
:109FC00010464FF49271FFF7CDFF02238DF8003059
:109FD000D2F88034C2F880340393D2F83C3502932F
:109FE000394BDA6801920022C3E906226846D3E9B8
:109FF000001290473348D0F8443173B14FF4A27146
:10A00000FFF7B0FF304B9A693AB10022C3E906224C
:10A01000D968D0F83C05FFF7ADFF2A48D0F82031C9
:10A02000ABB14FF49071FFF79DFF0123C360264B46
:10A030005A6962B1D0F84C150291002299688DF8E6
:10A04000002001915A616846D3E9001290471D48EB
:10A05000D0F858319BB14FF4AC71FFF783FF1A4B26
:10A060005A6962B1D0F84C150291002299688DF8B6
:10A07000002001915A616846D3E90012904704B06C
:10A0800070BDD2F81031002BB4D04FF48871104657
:10A09000FFF768FF0C4BD2F83C0599698842A9D1BB
:10A0A000DC69D96864B1D2F8005225F02005C2F805
:10A0B00000521A699C61DA60DE61FFF75BFF99E785
:10A0C0009C61FAE7002000400C2B00202DE9F843AA
:10A0D0006A4B06799146242202FB0632044692F826
:10A0E00020200D469846002A40F0C380644900684D
:10A0F000FFF7AEFC0746002840F0BD802868421CF0
:10A1000010D01F2887BF5F4A00F01F0303464FF09F
:10A11000A0420121994003F5E073C2F8081503211C
:10A1200042F8231069684B1C0DD01F298BBF01F02A
:10A130001F030B46534A4FF0A04203F5E0734FF064
:10A14000000C42F823C02368AA69C3F8242595F8B7
:10A1500014C06A7DBCF1010F4CEA0202C3F86C2501
:10A16000C3F80C05C3F814152BD1A968481C0DD0F1
:10A170001F298BBF01F01F020A4642484FF0A04042
:10A1800002F5E0724FF0000C40F822C0E868421C73
:10A1900013D01F2887BF3B4A00F01F0C84464FF0A6
:10A1A000A0424FF0010E0EFA0CFE0CF5E07CC2F856
:10A1B00008E54FF0030E42F82CE0C3F80805C3F899
:10A1C00010152423734308EB0302C2F804902A6994
:10A1D00048F80320B9F1000F3AD020682A7F4FF4E5
:10A1E0008871FFF7BFFE20684FF49071FFF7BAFE49
:10A1F00020684FF49271FFF7B5FE20684FF4A2710A
:10A20000FFF7B0FE20684FF4AC71FFF7ABFE236898
:10A210001D49C3F80413190B43F30733002BAEBFDA
:10A2200003F1604001F00F0518484FEA4212A8BF41
:10A2300000F56140D2B2B4BF425580F8002301F06E
:10A240001F01012202FA01F15B09114A42F82310B1
:10A2500023680822C3F80025242303FB0683002279
:10A26000C3E906225A61012283F820203846BDE85E
:10A27000F8830827FAE71127F8E700BF0C2B002026
:10A28000B59F0200000300501003420014ED00E0EF
:10A2900000E100E02DE9F0412E4E0579242303FB77
:10A2A000056304465B6800686BB12B4BC0F808334C
:10A2B00040F30733C0F304315B0901228A402033A5
:10A2C000264941F82320D0F80032012223F0200350
:10A2D000C0F800324FF4AC714260FFF743FE2368D0
:10A2E000DA60D3F85821002AFBD00022C3F80025F9
:10A2F000D3F80C05D3F81485D3F80815D3F81075E6
:10A300004FF0FF329042C3F80C25C3F81425C3F870
:10A310000825C3F8102501D0FFF73CFEB8F1FF3F38
:10A3200002D04046FFF736FE7A1C02D03846FFF7CF
:10A3300031FE4B1C02D00846FFF72CFE2068FFF7C9
:10A34000A9FB242303FB0565002385F820306B60FF
:10A35000BDE8F0810C2B00201003420000E100E07A
:10A3600001F06043B3F1005F2DE9F041064638D1BA
:10A370001E4B0779242505FB073598466C69002C90
:10A3800031D16A610068A9604FF49071FFF7EAFD6E
:10A390004FF4AC713068FFF7E5FD33686A69A9686E
:10A3A000C3F84415C3F8482501229A606A68AAB91F
:10A3B000D3F82021D3F858411AB9002CF8D00F2433
:10A3C00007E0002CFBD10122DA60D3F85821002AE3
:10A3D000FBD0242303FB078700237B612046BDE8D5
:10A3E000F0811024FAE71124F8E700BF0C2B0020BD
:10A3F00072DF704773DF704776DF70477ADF704730
:10A400007CDF70477FDF70478FDF7047B1DF7047B9
:10A41000FDF74ABE08B5064B01211878FFF7EAFFA1
:10A4200008B1FDF741FEBDE808400020FEF70EBF71
:10A43000502300200388212B13B5044654D007D89D
:10A44000112B30D0132B47D0102B0CD002B010BDE5
:10A45000522B51D0562B01D03B2BF7D1A088132182
:10A46000FFF7CAFF1AE0284B28482949C01AC0083C
:10A47000000440F00300FDF70FFB0120FEF7E6FEAD
:10A480000020FEF7F7FE234BA1882348198001F036
:10A4900003F908B1FDF708FEFDF7C4FD0028D5D08B
:10A4A000FDF702FED2E7184B18481C49C01AC00835
:10A4B000000440F00300FDF7EFFA0120FEF7DAFE9A
:10A4C000144B4FF6FF721A80FDF7C2FD08B1FDF77D
:10A4D000EBFDFFF79FFFB9E70E4800231A468521E1
:10A4E0000088FFF78FFFD9E7002301A98088ADF826
:10A4F0000430FFF789FFD1E7064800231A461946C2
:10A500000088FFF783FFC9E7D4C50200FCC502003D
:10A5100052CD0200522300209C2B00205CCD020073
:10A5200008B503784BB9054B3B211888FFF764FF4A
:10A5300018B1BDE80840FDF7B7BD08BD52230020A3
:10A5400008B5002948D00C2826D0182834D00B286C
:10A550001ED1224B22482349C01AC008000440F0F3
:10A560000300FDF799FA2048012100F049FA012281
:10A570001E4B1F49188801F073F930F008022BD0E8
:10A5800043F20202904227D043F20142904223D08C
:10A59000BDE80840FDF788BD104B11481149C01AAD
:10A5A000C008000440F00300FDF776FA11480221CC
:10A5B00000F026FA0222DBE7084B09480949C01AD5
:10A5C000C008000440F00300FDF766FA0A480321C2
:10A5D00000F016FA0322CBE708BD00BFD4C5020085
:10A5E000FCC5020069CD020083CD02005223002089
:10A5F000842B002094CD0200A5CD020010B50A4B9B
:10A600000A4CE41AE408240444F0030402203AB19A
:10A61000FEF71CFE06492046BDE81040FDF73CBA97
:10A62000FEF728FE0349F6E7D4C50200FCC5020088
:10A63000B4CD0200C5CD0200FDF736BD00B54FF424
:10A640008041A7B00020FDF771F808B1FDF72CFD9F
:10A65000FCF7A2FF0120FEF730FEFDF7E7FD08B191
:10A66000FDF722FD6A4840F233320321FDF784FCF6
:10A6700008B1FDF719FDFEF753FC08B1FDF714FD15
:10A6800001F058F908B1FDF70FFD002317A90120CB
:10A69000179301F0D7F908B1FDF706FD17A801F0EF
:10A6A00083FA08B1FDF700FD11235A488DF82030D8
:10A6B00001F014FC574982B208A8FFF7A1FE08B1C7
:10A6C000FDF7F2FC0822002117A801F0B2FB524A64
:10A6D0004FF0C87317A8CDE91723FFF78FFE08B115
:10A6E000FDF7E2FC4D48002100F0CEFE08B1FDF779
:10A6F000DBFC002308934A484A4B179317A900F044
:10A70000B9FF08B1FDF7D0FC474B4848089308A9AA
:10A7100001F038F808B1FDF7C7FC41F22353ADF85A
:10A720000430424B424C9B7C8DF806303C22002189
:10A7300008A801F07EFB02238DF820303C2240F275
:10A740000163002117A8ADF8223001F072FB224608
:10A750000123ADF86C3052F8041B01AB08A81C9320
:10A7600000F0E5F908B1FDF79FFC324AA16817A88F
:10A7700000F0DDF908B1FDF797FC1822002102A8CE
:10A7800001F057FB00230122ADF8143003934FF47E
:10A7900080738DF80820ADF81C30254926484023E9
:10A7A00002AA0493FFF724FE08B1FDF77DFC1C22EA
:10A7B000002117A801F03DFB00234FF4A022CDE9B2
:10A7C0001732ADF86A304FF4A0328DF86C301B4B65
:10A7D00019921C9303221A4B8DF8682017A81D9319
:10A7E00000F06EFC08B1FDF75FFC164B16481749E8
:10A7F000C01AC008000440F00300FDF74DF9FFF750
:10A8000009FEFCF7EDFF0028FBD1FEF79FFBF8E700
:10A8100028230020D7CD02005000A000702B00207C
:10A820009C2B002011A40200FDA50200842B002017
:10A83000402300204C2300205023002021A50200AB
:10A8400039A60200D4C50200FCC50200E2CD020018
:10A850000369C1688B429DBF8268D21802F1FF3242
:10A8600003F1FF3394BF501A581A70472DE9F8438B
:10A87000D0E902940546A9EB0408406890452044BD
:10A880000F46144404D901F0ABFAEC60BDE8F8833C
:10A890004246A4EB090401F0A3FA6868224607EBDC
:10A8A0000801F0E72DE9F843C568064689461746D2
:10A8B0004FF000083469B3687068A54228BFE418F7
:10A8C000013C621B5C1BBC4228BF3C46944228BF33
:10A8D000144649462844224601F082FAB3682544CA
:10A8E000AB4208BF00253F1BA044A144F560E1D165
:10A8F0004046BDE8F883000010B5114C114AA26132
:10A900000223C4E90433104BE361A2644FF40073E3
:10A910000E4A0F492362E26400231022E01DA36265
:10A920006362E362A3656365E365226501F0B4FADF
:10A930000849204601F0B0FA2023A37110BD00BFE2
:10A94000A82B0020FACD0200302C0020202C002063
:10A9500003CE020007CE0200F8B5184C182300FB06
:10A96000033503FB00402544C46A012C0F461646FC
:10A970000FD0022C1AD0F4B92846FFF769FF86429F
:10A9800005D8324639462846FFF770FF3446204640
:10A99000F8BD2846FFF75CFF8642344628BF0446D0
:10A9A000224639462846FFF761FFF0E72846BDE812
:10A9B000F840FFF777BF0024E9E700BFA82B00208D
:10A9C00073B50E4B1B7804460D4616460BB9FFF7C0
:10A9D00093FF00230DF107008DF80730FDF754FDBC
:10A9E000324629462046FFF7B7FF04469DF8070088
:10A9F000FDF76EFD204602B070BD00BFA82B002001
:10AA00000FB410B5A2B024AB802153F8042B0193EE
:10AA100002A801F0D7F9802804460ADD802202A9A5
:10AA20000020FFF7CDFF204622B0BDE8104004B063
:10AA300070470028F7DD0246F1E76DDF704779DFE8
:10AA400070477DDF704764DF70472DE9F04F85B0B8
:10AA500000250E9CBDF83CB0B4F800A0019107465B
:10AA600090461E46A9463A884A450DDC45B12388E2
:10AA7000013BA3EB0A039BB2FF2B3AD806F80A303E
:10AA8000002005B0BDE8F08F7A6852F829000390E5
:10AA900000220DF10B0103A8FFF7D5FF0028F0D12C
:10AAA0009DF80B20424521D12288002D14BF0020A3
:10AAB000022002EB0801014459451ADC3DB901327C
:10AAC00092B2019B2280B3542288013222802288D4
:10AAD0000DF10B01324403A8FFF7B5FF0028D0D1D8
:10AAE00021889DF80B200A442280012509F10109E3
:10AAF000B9E70C20C5E72DE9F341089FBDF8248094
:10AB00001546CDE90078022204461E46FFF79DFF58
:10AB100050B93346102229462046CDE9087802B0C4
:10AB2000BDE8F041FFF791BF02B0BDE8F0812DE92B
:10AB3000F04F00231788138090F82D3085B006461B
:10AB40000D46144653B3082F01D80C2027E102A864
:10AB5000FFF773FF002840F0228123880822EA547F
:10AB6000238801339BB21B222380EA5420880130C2
:10AB700080B2208006220DF10901284401F030F94D
:10AB800023889DF8082006339BB212F0FE0218BFFE
:10AB900001222380EA54238801332380B378FBB158
:10ABA00023880433BB42D0D802A8FFF748FF00280F
:10ABB00040F0F58023880322EA54238801339BB2B6
:10ABC00019222380EA542388BDF8082001339BB260
:10ABD000E9182380EA54120A4A702388023323803A
:10ABE000F2789AB12388D91CB942AED80221E9542F
:10ABF000238801339BB201212380E95423880B442D
:10AC00009BB22380EA5423880B4423807268AAB144
:10AC10002388D91CB94298D8022192F90020E9541E
:10AC2000238801339BB20A212380E954238801330E
:10AC30009BB22380EA542388013323803389002B7D
:10AC400040F0A180338A5BB1CDE900472B46072253
:10AC5000032106F11000FFF74EFF002840F09F800F
:10AC6000338B5BB1CDE900472B461522142106F149
:10AC70001800FFF740FF002840F09180326A002A58
:10AC800040F09080D6F82480B8F1000F30D0B8F8AA
:10AC900004302188981C8A1C0244BA423FF655AF02
:10ACA000FE283FF652AF03336B54238801339BB227
:10ACB000FF222380EA54238801339BB22380B8F813
:10ACC0000020EA54E918120A4A702088023080B243
:10ACD0002080B8F804205AB1D8F8081000296BD0A9
:10ACE000284401F07DF82388B8F804201344238019
:10ACF00096F82C30002B40F09A80307800284ED007
:10AD00003388012B58D0228802F1020CBC453FF653
:10AD10001CAF012805D17378023313449F42FFF41E
:10AD200014AF023FBF1ABFB202A905EB0C00ADF889
:10AD30000870FFF786FE90BB3178BDF80830022915
:10AD400000F0BA8072789A4202D3BB4240F2B280DD
:10AD5000012940F0B380974293B2C0F0AF80ADF8C4
:10AD600008300821BDF80830FE2B3FF6EEAE2288F1
:10AD70000133AB542288013292B22280A954228836
:10AD8000134423800BE0CDE900472B460622022125
:10AD900006F10800FFF7AFFE00283FF453AF05B0FF
:10ADA000BDE8F08FB4F800C00CF10603BB423FF6DB
:10ADB000CCAE1188052901D80720F0E76FF4486E62
:10ADC00001EB0E039BB24FF27D3E7345F4D95388DD
:10ADD000052BF1D96FF44860181880B27045EBD993
:10ADE0004FF6FF70814203D0834201D09942E3D8ED
:10ADF000052305F80C30238801339BB212212380F0
:10AE0000E954238801339BB223801188E954E81860
:10AE1000090A4170238802339BB223805288EA5486
:10AE2000E918120A4A702388023323802AE7B36A9A
:10AE3000002BC1D04FF000094FF00C0A4FF0160B59
:10AE400096F82C305FFA89F293427FF656AFB16ADA
:10AE50000AFB02F201EB0208B8F80430981CFE2845
:10AE60003FF673AE208803332B54238801339BB203
:10AE7000238005F803B0238801339BB223808A5ACC
:10AE8000EA54E918120A4A702088023080B2208001
:10AE9000B8F804205AB1D8F8081000298CD02844FA
:10AEA00000F09EFF2388B8F804201344238009F1A2
:10AEB0000109C5E7092155E7BB42FBD9ADF8087088
:10AEC0004FE775DF704776DF70477ADF70477BDFCB
:10AED00070470000034B1A8882420CBF18460020BE
:10AEE000704700BF4C2E0020024B9B6903B11847EE
:10AEF000704700BF302E002073B585B22846FFF79B
:10AF0000E9FF044670B1164E027A337B9A420BD2A7
:10AF100000F10A012846FFF7D4FFE8B1112801D05B
:10AF2000FFF7E2FF02B070BD00230372337C43B130
:10AF30003B212846FFF7C7FF30F0080301D0FFF799
:10AF4000D3FF7369002BEDD000228DF80420ADF8FB
:10AF5000065001A89847E5E7237A01332372E1E719
:10AF6000302E002037B50B46497A0F4A71B9D2E925
:10AF700001141D7A0246002D18BF21465868FDF7BE
:10AF800092F908B1FFF7B0FF03B030BD002119728C
:10AF90005369002BF8D00122ADF806008DF804208B
:10AFA00001A89847F0E700BF302E00204B880288A8
:10AFB0009A4213D842889A4210D380888A8840F2F5
:10AFC000F313984294BF031AC31A934206D800F2AF
:10AFD000F310904234BF00200120704700207047DA
:10AFE0000388122B70B5014659D004D8102B1ED0FF
:10AFF000112B44D070BD502BFCD12F4BC288DB8964
:10B000009A42F7D1038A022BF4D186883046FFF7A3
:10B0100061FF05460028EDD001F1120000F03FF974
:10B0200038BB6868FDF757F90028E3D009E0C37B17
:10B03000012BDFD14FF6FF70FFF74CFF054620B91B
:10B040000420BDE87040FFF74FBF1C4A8E88068081
:10B05000002303721368C0F80A305368C0F80E303A
:10B0600010310A30FFF7A2FF134B6872DB89002B07
:10B07000C0D129463046BDE87040FFF773BF8088D5
:10B08000FFF728FF04460028B4D04068FDF723F9F5
:10B0900008B1FFF729FF4FF6FF732380AAE78688E0
:10B0A0003046FFF717FF05460028A3D008310A30C5
:10B0B000FFF77CFF6872DCE7302E0020602E002056
:10B0C000F8B5064648B305460FCD154F3C460FC4AC
:10B0D00095E8070084E807003068124C3C60B0B186
:10B0E000FFF7F3FEC0B932681368236053686360EA
:10B0F0000D480E4A4FF6FF7303800D4B40F8043F96
:10B100000021FDF7C5F8002818BF032004E0204601
:10B11000FFF7DDFE0028EBD0F8BD0E20FCE700BFF6
:10B12000302E0020602E00204C2E0020F9AE0200B0
:10B13000682E00200AB1FDF7A9BBFDF7B0BB73B5BF
:10B140000191019C06466CB100252C46294601A8B8
:10B15000FDF7AFFB18B106EB440301349D800135C8
:10B16000142DF3D13046346002B070BD2DE9F047A4
:10B1700003888488103B8CB005460A2B1FD8DFE873
:10B1800003F0063F1E1E1E1E1E1E1E604400314E92
:10B19000B368DB43009371686846FDF7B6FB00991E
:10B1A00001A8FFF7CCFF0DF108094FF00008019B43
:10B1B000984507D3132C13D90420FCF775FF0CB066
:10B1C000BDE8F08739F802AB00270137514606EB9E
:10B1D0008700FDF764FB1E2FF7D108F10108E6E7B1
:10B1E0001D482146FDF752FB1C482146FDF74EFB4A
:10B1F000EB7B012BE3D01A482146FDF747FBDEE746
:10B2000015482146FDF74BFBD9E7027A15483F2A3E
:10B210004FEA1215214694BF00220122FFF78AFF50
:10B22000022D94BF002201220F482146FFF782FF22
:10B23000012D0E4894BF002201222146FFF77AFF1C
:10B24000BDE7037A002BBAD1427A0648C2F3C002A6
:10B250002146F3E7882E0020902E00208C2E00201F
:10B26000942E0020A02E00209C2E0020982E00203E
:10B27000AADF7047002301380B70042806D8DFE8E6
:10B2800000F00306080A0C0011230B7070472123FD
:10B29000FBE73123F9E71223F7E72223F5E70078EC
:10B2A00000F001007047F0B58B7891B0012B0C468F
:10B2B00038BF01238DF80E3005460B88ADF80C30F1
:10B2C000002116466846032200F0B3FD607C694603
:10B2D000FFF7D0FFA07C0DF10101FFF7CBFFE27B70
:10B2E000237B217D43EAC203227C43EA02139DF8BB
:10B2F0000220002922F0190203F0190314BF0221D1
:10B300000121134361F342031C22002109A88DF897
:10B31000023000F08EFD637B13F0300F15D002AFCA
:10B3200003220021384600F084FDE07C0DF1090184
:10B33000FFF7A0FF11238DF808309DF80A300E9713
:10B34000012262F342038DF80A30637B8DF82430CA
:10B350001422A37B8DF82530002104A800F069FD9C
:10B3600003AB0493A388ADF81C30A368CDF814D0C8
:10B370001BB1E288ADF818200893A369002B31D0E7
:10B3800001AF03220021384600F053FDA3691A885B
:10B39000ADF82C205A88ADF82E205A680D97187BEE
:10B3A0000A923946FFF766FFA3690DF10501587B44
:10B3B000FFF760FFA269917A137A43EAC103D17A59
:10B3C000927B43EA01139DF80610002A03F019034B
:10B3D00021F0190114BF022201220B4362F3420340
:10B3E0008DF80630E36903B10C93334604AA09A92A
:10B3F0002846FFF73DFF11B0F0BD90DF7047A5DF95
:10B400007047B5DF704700007FB50023ADF8081026
:10B41000ADF80A106A4602A9064603930093ADF8F8
:10B420000430FFF7EAFF054600B3124B124CE41A52
:10B43000E408FDF715FE240444F0010403460F4917
:10B4400032462046FCF735FBBDF80020BDF802303F
:10B4500052EA030103D00A492046FCF72AFBBDF853
:10B4600004201AB107492046FCF71AFB284604B00D
:10B4700070BD00BFD4C502001CC602000ECE020083
:10B4800058CE020097CE020078B14FF01713036038
:10B490001B2303711723C380038141F61B32002352
:10B4A000016143818281184670470E207047000079
:10B4B00013B5034680880C46B8B91A88242A00F0D0
:10B4C000958014D8112A71D0232A00F09D80102A6B
:10B4D0003BD0A37A4BB1E1880020FFF790FF002812
:10B4E00040F098804FF48073638102B010BD3A2A17
:10B4F00064D0552AEDD1DB88C988A072172B38BFDC
:10B5000017238B4228BF0B462381FFF77AFF60B1D8
:10B51000FDF7A6FD484B4949024649481B1ADB087E
:10B520001B0443F00100FCF7BBFAE37A002BD0D1F7
:10B530002369002BCDD040F6772200922289ADF806
:10B540000420694620469847C3E7DB7B0A790A73E3
:10B55000012B13D0022B14D0E18823898B4205D212
:10B560000020FFF74CFF70B90123E372217B637B5E
:10B570008B42AED20020FFF747FFAAE70B88E3809B
:10B58000EAE74B88FBE7112802D10123A372EDE71C
:10B59000FDF766FD284B2B49024629481B1ADB089C
:10B5A0001B0443F00100FCF77BFADFE71723CB8095
:10B5B0000B8141F61B3348818B818AE75B89CA88FE
:10B5C000934228BF1346172B0A6938BF17230B81F4
:10B5D0004AB1C97A39B140F677210091ADF804300B
:10B5E0006946204690470023638172E71A7A0B6907
:10B5F0004A73002B3FF46DAF4DF67A218DF80500AC
:10B6000000918DF804209CE7197A237B994228BF8A
:10B610001946B0E711283FF468AFFDF721FD064B4E
:10B620000849024606481B1ADB081B0443F00100C8
:10B63000FCF736FA59E700BF1CC602001ECF020015
:10B64000D4C50200EDCE0200B0DF704766DF704760
:10B6500010B5002104464088FFF7F8FF034608B9FB
:10B66000237210BD112801D10123F9E76368BDE8F9
:10B670001040184760B159B10378DE2B0AD00B682F
:10B680004360DE2303704FF6FF7343800020704752
:10B690000E2070470820704728B10378DE2B04D1B4
:10B6A0004180002070470E20704708207047F0B599
:10B6B000054685B00C46F1B1E8B10B78DE2B1AD106
:10B6C00082884B889A4204D10B7A13B10846FFF75F
:10B6D000BFFF2B88112B32D0512B0ED0012B0AD15A
:10B6E0002B7A012B07D1A9886288914203D123725A
:10B6F0002046FFF7ADFF05B0F0BDAE886388B342CA
:10B70000F9D1AF79022FF6D1AD7B2B1F022BF2D8E6
:10B7100000211022684600F08CFB052D14BF4FF469
:10B72000C0730023694630468DF80070ADF80430D0
:10B73000FFF78AFF0028DED063689847DBE763885D
:10B74000AA889A4204BF4FF6FF736380D3E7A8DF4D
:10B750007047AEDF704762DF70470288502A10B42E
:10B760000DD1C4884A88944209D1028A012A06D19F
:10B770004B6923B1827C5DF8044B808818475DF8E3
:10B78000044B7047F0B50B6843618FB0334B02AA8E
:10B79000044603F11007164618685968154603C594
:10B7A0000833BB422A46F7D104F112013046FFF7B5
:10B7B000D2FF00284FD1A37C8DF80630224641F2FB
:10B7C000235301A90120ADF80430FFF7C0FF002882
:10B7D00041D10146202206A800F02BFB41F2245360
:10B7E000ADF81830A37C8DF81A309DF8253022462C
:10B7F00023F0120301254FF0011643F0120332F833
:10B800000A0B079606A98DF825308DF829508DF87A
:10B810002B50FFF748FDF0B90146202206A800F0A2
:10B8200008FB41F22553ADF81830A37C8DF81A308F
:10B830009DF825300796224623F00A0343F00A03B9
:10B8400032F8020B8DF8253006A98DF829508DF8B5
:10B850002A50FFF728FD0FB0F0BD00BF5ACF0200FD
:10B8600070B588B00D468DF80720102204460126D9
:10B870000DEB02000021ADF80E6000F0DAFA6B89E2
:10B88000ADF810300DF10703079304A90DF10E0375
:10B8900020468DF812600693FFF75BFF08B070BD7D
:10B8A00010DF704713B5044609496846FDF77DFB74
:10B8B000019808B902B010BDD0E900212046904798
:10B8C00018B16846FDF77BFBF2E71120F2E700BFF5
:10B8D00078CF020013B5044607496846FDF765FBBB
:10B8E000019B0BB902B010BD2046D3E9002190475F
:10B8F0006846FDF764FBF3E790CF02000B4991F82F
:10B9000016335A09EC231341DB0706D5084B9A6816
:10B910003AB94FF480030B60704742F20200FCF723
:10B92000C3BB1A6842F480021A60704700E100E06D
:10B93000142A0020F7B5194F3C7864BB184E012536
:10B9400020463570FFF7AEFF112821D02046FFF7C3
:10B95000C1FF144B8DF80340186801900DF10300EE
:10B96000FCF792FD104901A8FFF79AFF0446B0FAD0
:10B9700080F0400938709DF80300FCF7A9FD3CB940
:10B980000A4B34701C70FFF7B9FF2846FFF7A2FF7F
:10B99000204603B0F0BD0824FAE700BF052F0020C1
:10B9A000042F002072CF0200C5800200062F002065
:10B9B000014B1878704700BF052F002007B50849D4
:10B9C0006846FDF7F2FA019B13B903B05DF804FB7A
:10B9D000D3E9002090476846FDF7F1FAF3E700BF8E
:10B9E00084CF0200FFF7EABF60DF704769DF70476E
:10B9F00061DF704730B5114B1B7891B0E3B1104D4A
:10BA000034240DF1020103A8ADF80240FFF7F0FF66
:10BA100070B9294601A8FDF7C8FA029B002BF0D0A7
:10BA200003A8D3E90021904701A8FDF7C8FAF4E77D
:10BA3000052801D0FCF738FB11B030BD072F0020DE
:10BA4000D4D1020030B5054685B00C46002900F07F
:10BA500099804D4B0B600C22002101A800F0E9F900
:10BA600001238DF8063022688DF80450062301A9C1
:10BA70002020ADF80830FFF7B9FF60B1FDF7F0FA0C
:10BA8000424B4349024643481B1ADB081B0443F060
:10BA90000100FCF705F80C22002101A800F0C9F90B
:10BAA00001238DF805302268002301A94020ADF85C
:10BAB0000630FFF79BFF60B1FDF7D2FA334B3649F2
:10BAC000024634481B1ADB081B0443F00100FBF755
:10BAD000E7FF0C22002101A800F0ABF90A2322683D
:10BAE0008DF8043001A90120FFF780FF60B1FDF758
:10BAF000B7FA264B2949024626481B1ADB081B04C5
:10BB000043F00100FBF7CCFF0C22002101A800F05C
:10BB100090F94FF4B0632268019301A9A120FFF7C7
:10BB200065FF60B1FDF79CFA184B1D4902461948A4
:10BB30001B1ADB081B0443F00100FBF7B1FF0C22CA
:10BB4000002101A800F075F99DF8043022686FF318
:10BB5000000301A9A0208DF80430FFF747FF03463A
:10BB600068B1FDF77DFA094B0E49024609481B1AD8
:10BB7000DB081B0443F00100FBF792FF002318468B
:10BB800005B030BD0E23FAE7002300202CC60200CA
:10BB90009CCF0200D4C50200E2CF02002ED00200EA
:10BBA0007AD00200CBD0020073B505460668FFF7D5
:10BBB0001BFF2B68B34204461DD91A481A4B1B4978
:10BBC0001B1ADB081B0443F002000190FBF764FF23
:10BBD0002B68174901983246FBF76BFF4FF08053F3
:10BBE0002A68D3F80C31134901989B0203F10053E2
:10BBF0009A1AFBF755FF2CB90F4B01221A702046F9
:10BC000002B070BD2046FDF72BFA074B0B490246E8
:10BC100004481B1ADB081B0443F00100FBF740FF3C
:10BC2000EDE700BFD4C502002CC602001ED1020001
:10BC30004DD102007ED10200072F0020A8D10200C2
:10BC40004BDF70471FB50D4C01A8FFF7F9FF70B926
:10BC5000214602A8FDF7A9F9039B002BF4D0019817
:10BC6000D3E90021904702A8FDF7A9F9F4E70528D8
:10BC700001D0FCF719FA04B010BD00BFECD10200EE
:10BC80007F2805D8034B185C034B5B5C184070475A
:10BC90000020704704D2020084D20200A0F16103A8
:10BCA000192B98BF20387047A0F14103192B98BF7A
:10BCB000203070477F2805D8034B185C034B5B5C32
:10BCC000184070470020704704D2020084D202005E
:10BCD000A0F16103192B98BF20387047A0F14103F0
:10BCE000192B98BF203070477F299ABF017001201F
:10BCF0006FF02E0070475AB10A787F2A0AD800B137
:10BD00000260002119605960501A18BF0120704765
:10BD1000002070476FF02E00704738B50446084683
:10BD2000A26842B1236861685D1C8D4208BF002093
:10BD30008B4208D2D054E3682BB1216862689142EB
:10BD400001D22146984723680133236038BD70B57E
:10BD50004C1E09D41646C5B229463046FFF7DDFF12
:10BD6000013CB4F1FF3FF7D170BD10F0100F08D1C6
:10BD700008B510F4007F14BF30202020FFF7E7FF44
:10BD800008BD704708B5034B5B689B681B68984704
:10BD900008BD00BF5423002008B50921FFF7F2FFBA
:10BDA00008BD037853B159B10144034613F8012F7C
:10BDB00012B18B42FAD10B46181A70470346FBE7C3
:10BDC0000346F9E710B584B00C46114602900022F4
:10BDD000039201941A46684600F0B0F804B010BD12
:10BDE000844640EA010313F0030F18D18446202A49
:10BDF0000BD32DE9F007B1E8F807A0E8F807A2F1A6
:10BE00002002202AF7D2BDE8F007042A07D351F810
:10BE1000043B40F8043BA2F10402042AF7D2002AB2
:10BE200005D011F8013B00F8013B013AF9D1604619
:10BE300070478446002A2DD010F0030F04D000F87C
:10BE4000011B013A26D0F7E7C9B241EA012141EAD4
:10BE50000141202A12D3A2F120022DE9F0030B4662
:10BE60000C460D460E460F4688468946A0E8FA0362
:10BE7000203AFBD2BDE8F00320320BD0042A05D3D0
:10BE800040F8041B043A05D0042AF9D200F8011B3B
:10BE9000013AFBD160467047024610F0030F16D1FD
:10BEA00011F0030F13D12DE9F0004FF001374FF0DF
:10BEB000803351F8044BA4EB070525EA04051D4027
:10BEC00002D142F8044BF4E7A1F10401F0BC11F8EF
:10BED000013B02F8013B002BF9D1704700F1010151
:10BEE00010F0030F11D010F8012B002A23D010F00E
:10BEF000030F0AD010F8012B002A1CD010F0030FFA
:10BF000003D010F8012B002A15D02DE970004FF056
:10BF100001324FF0803350F8044BA4EB020525EAC0
:10BF200004051D4000D1F6E7A0F1040070BC10F834
:10BF3000012B002AFBD1A0EB010070472DE9F04F47
:10BF400089B007460392002303600C4614F8011BD6
:10BF5000002900F0FA82DFF814B5E9E2002507E0D5
:10BF60005E2868D145F4805501E045F040051C4647
:10BF7000234613F8010B3028F2D81F2837D9A0F137
:10BF80002002102A33D801A151F822F06BBF020021
:10BF9000EFBF0200EFBF0200D1BF0200EFBF0200FF
:10BFA000EFBF0200EFBF0200D7BF0200EFBF0200E9
:10BFB000EFBF0200EFBF0200DDBF0200EFBF0200D3
:10BFC000E3BF0200EFBF0200EFBF0200E9BF0200C3
:10BFD00045F08005CBE745F40045C8E745F020056E
:10BFE000C5E745F01005C2E745F40075BFE72A280C
:10BFF00021D1039A111D0391D2F800A0BAF1000FCC
:10C00000BCBFCAF1000A45F010051878A31C2AEA43
:10C01000EA7A2E2826D00021742847D07A2845D0E5
:10C020006C2800F0A8804C2800F0AB80682800F055
:10C03000B8801C463DE0A0F13002D2B2092A88BF88
:10C040004FF0000AE3D84FF0000A0AEB8A0A3038B2
:10C0500000EB4A0A13F8010BA0F13002D2B2092A10
:10C06000F3D9D4E718782A280AD1039A111D03912D
:10C070001168587802330029CEDB45F48075CBE790
:10C080000133A0F13002D2B2092A88BF0021F4D8CE
:10C09000002101EB8101303800EB410113F8010B65
:10C0A000A0F13002D2B2092AF3D9E4E71C4614F811
:10C0B000010B002800F05582A0F12503DBB2532BC1
:10C0C00062D8A0F12503532B5ED8DFE813F0760089
:10C0D0005D005D005D005D005D005D005D005D0078
:10C0E0005D005D005D005D005D005D005D005D0068
:10C0F0005D005D005D005D005D005D005D005D0058
:10C100005D005D005D005D005D005D005D005D0047
:10C110005D005D005D005D005D005D005D005D0037
:10C120005D005D005D005D005D005D005D005D0027
:10C130005D005D00EB005D005D005D005D005D0089
:10C140005D005D005D005D005D007B0020015D0025
:10C150005D005D005D0020015D005D005D005D0033
:10C1600095000E01D1005D005D00A6005D00190183
:10C170005D005D00ED001C4614F8010B45F0010563
:10C1800097E745F001051C46B44B1E68002E00F0F1
:10C19000CC8103AB0193009153462A463946B04700
:10C1A000C3E11878682803D05C1C45F0040580E7DB
:10C1B00045F008059C1C58787BE725213846FFF799
:10C1C000ACFDB2E1039B1A1D03921E780AF1FF3AFF
:10C1D0003A4651462846FFF7C8FD31463846FFF734
:10C1E0009CFDA94619F0100F00F09F813A46514678
:10C1F0002020FFF7ACFD98E115F0080F06D03A6853
:10C20000039B191D03911B681A708EE1039B1A1D75
:10C2100003921B683A681A6087E1039B1A1D039218
:10C22000D3F800808E4BB8F1000F08BF9846464601
:10C2300025F4007915F4807F15D04046FFF7B1FD55
:10C240000546AAEB050A3A4651464846FFF78DFDDA
:10C25000002DC7D0454416F8011B3846FFF75DFD99
:10C26000B542F8D1BEE74046FFF738FE0546E8E79D
:10C27000039B1A1D03921B6815F0800F0CBF00264C
:10C28000232645F4807508211A46002B00F02981E9
:10C2900005AB4FF0000805F4005CA64660468C46EE
:10C2A0000146D1E045F4005515F0800F1BD043F254
:10C2B000780643F25803782818BF1E4615F4807F8D
:10C2C00001D025F4007515F4804F32D0039B1A1D60
:10C2D00003921B6815F0040F1FD01BB2002B20DA4D
:10C2E0005B422D262DE00026E8E715F0800F0CBFFD
:10C2F0000026302615F4807FE5D025F40075E2E7AE
:10C3000015F4807F07D025F400750026DBE745F49F
:10C3100080450026D7E70026D5E715F0080FDDD0C9
:10C32000DBB215F0200F60D115F0400F18BF2026AA
:10C3300007E0039B1A1D03921B6815F0040F4FD0F2
:10C340009BB215F4807F14BF25F400750121583885
:10C35000202800F2AE8001A252F820F089C202002B
:10C36000B3C40200B3C40200B3C40200B3C40200E9
:10C37000B3C40200B3C40200B3C40200B3C40200D9
:10C38000B3C40200B3C40200B3C4020017C4020065
:10C39000B3C40200B3C40200B3C40200B3C40200B9
:10C3A00017C40200B3C40200B3C40200B3C4020045
:10C3B000B3C40200B3C40200EFC3020089C202008A
:10C3C000B3C40200B3C40200B3C40200B3C4020089
:10C3D00017C40200B3C40200B3C4020089C2020041
:10C3E00015F0080FADD0DBB2ABE72B26A9E71A4654
:10C3F0004FF00008002B5ED005A84FF0000803F0B6
:10C400000703303300F8013B08F10108D208134656
:10C41000002AF4D14FE018464FF00008002B4AD014
:10C420004FF0000805F4004E4FF02C0973468E467D
:10C4300019462FE002F00F000A4C205C03F8010BB4
:10C4400008F10108120906D00029F3D002F00F000C
:10C45000054C205CF2E7744661462CE0082F002072
:10C4600058D4020038D4020048D40200CDCCCCCC41
:10C4700008AB03EB080CABFB0032D20802EB8203E3
:10C48000A0EB430330330CF80C3C08F101080928F9
:10C490000DD910460029EBD008F00303032BE7D198
:10C4A00008AB434403F80C9C08F10108E0E771462F
:10C4B00001E04FF00008A1EB080121EAE179AAEBC5
:10C4C000090AAAEB080AFF2E0ED9AAF1020AC6F33E
:10C4D00007213846FFF721FCF1B23846FFF71DFC73
:10C4E00004E04FF00008E6E7002E3DD13A46514601
:10C4F0002846FFF73AFC3A4649463020FFF727FC2A
:10C50000B8F1000F0EDD0DF1140908F1FF38C84431
:10C5100098F8001046463846FFF7FFFBC14508F182
:10C52000FF38F5D115F0100F09D114F8011B61B1D6
:10C5300025293FF413AD3846FFF7EFFBF5E73A4600
:10C5400051462020FFF703FCEFE7BB682BB13A68A8
:10C5500079688A423CBF00219954386809B0BDE827
:10C56000F08F4FF0FF30F9E70AF1FF3AB4E700BF70
:08C570003993020000000000F5
:10C578006DB1020000000000B1B40200702B002071
:10C58800E1AF020000000000AFB602009C2B0020C3
:10C598005BB70200842B002035A4020000000000D5
:08C5A800B9930200000000003D
:10C5B000F5B902000000000045BC020000000000C8
:10C5C000AC230020742400207C240020B42300200D
:04C5D000180000004F
:10C5D40036CD0200000000003CCD02000000000047
:10C5E40043CD02000000000047CD0200000000001F
:10C5F4004CCD020000000000AAC6020000000303A4
:10C6040080C7020000000000A9C70200000000006B
:10C6140030CD0200000000004DCF020000000303F3
:10C624006ACF020000000303C5D102000000030327
:10C63400E0D102000000030316C80200000000005D
:08C644002CC8020000000000F8
:10C64C007CC602000000000088C6020014230020F3
:10C65C00FFFFFFFFFFFFFFFFFFFFFFFFFFFFFFFFDE
:10C66C0000000000000000000000D60106010000E0
:10C67C000175020065750200A17402007561727487
:10C68C005F6C6F675F6261636B656E6400426163D0
:10C69C006B656E647320666C75736865640061709D
:10C6AC0070000000A02800207F000000202900203E
:10C6BC001B5B306D002573001B5B313B33316D0010
:10C6CC0025734C6F67732064726F707065642028DB
:10C6DC0025642925730D0A003C25733E2025733AE9
:10C6EC002000202530327800202020007C0025639B
:10C6FC00001B5B313B33306D001B5B313B33326DC8
:10C70C00001B5B313B33336D001B5B313B33346DB2
:10C71C00001B5B313B33356D001B5B313B33366D9E
:10C72C00001B5B313B33376D007761726E696E674E
:10C73C0000696E666F00646562756700BCC60200B6
:10C74C00FDC60200C4C6020005C702000DC70200E8
:10C75C0015C702001DC7020025C702002DC7020025
:10C76C000000000096C7020035C702003DC702005A
:10C77C0042C702006170705F627574746F6E000066
:10C78C0040290020466174616C206572726F7200E2
:10C79C0053797374656D2072657365740061707084
:10C7AC005F74696D657200000100060000000000F6
:10C7BC008C2900203581020052544320696E737419
:10C7CC00616E636520616C726561647920696E6964
:10C7DC007469616C697A65642E005254433A20691D
:10C7EC006E697469616C697A65642E0000000000E2
:10C7FC00000000000338FDD8704730313233343537
:10C80C00363738394142434445467077725F6D671D
:10C81C006D74000078C5020078C5020004000000A9
:10C82C00736F72746C697374004E52465F53554348
:10C83C0043455353004E52465F4552524F525F533D
:10C84C0056435F48414E444C45525F4D4953534902
:10C85C004E47004E52465F4552524F525F534F4621
:10C86C00544445564943455F4E4F545F454E4142F3
:10C87C004C4544004E52465F4552524F525F494E12
:10C88C005445524E414C004E52465F4552524F5207
:10C89C005F4E4F5F4D454D004E52465F4552524FD5
:10C8AC00525F4E4F545F464F554E44004E52465FBA
:10C8BC004552524F525F4E4F545F535550504F524A
:10C8CC00544544004E52465F4552524F525F494EBA
:10C8DC0056414C49445F504152414D004E52465FC7
:10C8EC004552524F525F494E56414C49445F535446
:10C8FC00415445004E52465F4552524F525F494E8D
:10C90C0056414C49445F4C454E475448004E5246A4
:10C91C005F4552524F525F494E56414C49445F4617
:10C92C004C414753004E52465F4552524F525F495D
:10C93C004E56414C49445F44415441004E52465F6F
:10C94C004552524F525F444154415F53495A45003E
:10C95C004E52465F4552524F525F54494D454F55CA
:10C96C0054004E52465F4552524F525F4E554C4CFE
:10C97C00004E52465F4552524F525F464F5242490B
:10C98C004444454E004E52465F4552524F525F4909
:10C99C004E56414C49445F41444452004E52465F0E
:10C9AC004552524F525F42555359004E52465F45C5
:10C9BC0052524F525F434F4E4E5F434F554E5400B1
:10C9CC004E52465F4552524F525F5245534F55524D
:10C9DC00434553004E52465F4552524F525F4D4FA6
:10C9EC0044554C455F4E4F545F494E495449414C58
:10C9FC00495A4544004E52465F4552524F525F4D84
:10CA0C00555445585F494E49545F4641494C45443D
:10CA1C00004E52465F4552524F525F4D5554455849
:10CA2C005F4C4F434B5F4641494C4544004E524688
:10CA3C005F4552524F525F4D555445585F554E4CC1
:10CA4C004F434B5F4641494C4544004E52465F456F
:10CA5C0052524F525F4D555445585F434F4E445FB1
:10CA6C00494E49545F4641494C4544004E52465F3D
:10CA7C004552524F525F4D4F44554C455F414C52BD
:10CA8C00454144595F494E495449414C495A4544E2
:10CA9C00004E52465F4552524F525F53544F5241D3
:10CAAC0047455F46554C4C004E52465F4552524FDF
:10CABC00525F4150495F4E4F545F494D504C454D6C
